:10000E00000000F8000000000000003300000000B7
:10001E0000100C02100C0200000000000000000096
:10002E000040C07840C0780000043F04043F040044
:10003E0000708888FC08300000182020FF211E0068
:10004E00F008F0806018000000310C031E211E0025
:10005E0000F00888700000001E21232C19272110A3
:10006E0000120E0000000000000000000000000062
:10007E00000000E0180402000000000718204000F5
:10008E0000020418E00000000040201807000000E5
:10009E00404080F0804040000202010F0102020049
:1000AE0000000000E0000000000101010F0101014D
:1000BE000000000000000000009070000000000032
:1000CE0000808080808080800000000000000000A2
:1000DE0000000000000000000030300000000000B2
:1000EE0000000000C0380400006018070000000087
:1000FE0000E010080810E000000F102020100F0084
:10010E0000001010F8000000000020203F2020000A
:10011E00007008080808F000003028242221300062
:10012E0000300808088870000018202121221C00C9
:10013E000000804030F8000000060524243F2424EF
:10014E0000F88888880808000019202020110E0069
:10015E0000E0108888900000000F112020201F0062
:10016E0000180808886818000000003E0100000012
:10017E000070880808887000001C222121221C00B3
:10018E0000F008080810E0000001122222110F00F2
:10019E0000000000000000000000363600000000E5
:1001AE00000000000000000000005B3B00000000AB
:1001BE0000008040201008000001020408102000FA
:1001CE000040404040404000000202020202020095
:1001DE0000081020408000000020100804020100DA
:1001EE0000704808088870000000003037000000DA
:1001FE00C030C828E810E000071827282F2817005D
:10020E000000C038E0000000203C23020227382006
:10021E0008F8888888700000203F202020110E00EA
:10022E00C0300808080838000718202020100800E1
:10023E0008F808080810E000203F202020100F00CA
:10024E0008F88888E8081000203F20202320180096
:10025E0008F88888E8081000203F200003000000FE
:10026E00C03008080838000007182020221E02009F
:10027E0008F808000008F808203F210101213F205E
:10028E00000808F8080800000020203F2020000089
:10029E0000000808F8080800C08080807F00000079
:1002AE0008F888C028180800203F200126382000B2
:1002BE0008F8080000000000203F20202020300019
:1002CE0008F8F800F8F80800203F013E013F200032
:1002DE0008F830C00008F808203F200007183F003B
:1002EE00E01008080810E0000F10202020100F006A
:1002FE0008F808080808F000203F2101010100005D
:10030E00E01008080810E0000F10282830504F00A9
:10031E0008F8888888887000203F2000030C302061
:10032E0000708808080838000038202121221C009F
:10033E00180808F8080818000000203F20000000E8
:10034E0008F808000008F808001F202020201F00D1
:10035E000878880000C83808000007380E01000031
:10036E0008F800F800F8080000033E013E03000004
:10037E00081868808068180820302C03032C302061
:10038E000838C800C83808000000203F20000000D0
:10039E0010080808C8380800203826212020180028
:1003AE00000000FE020202000000007F40404000FC
:1003BE0000000004081020C0000000000202027FAE
:1003CE0000020202FE000000004040407F000000DC
:1003DE000000040202040000000000000000000003
:1003EE0000000000000000008080808080808080FF
:1003FE0000020204000000000000000000000000E7
:10040E00000080808000000000192424123F20008C
:10041E0010F0008080000000003F112020110E001F
:10042E000000008080800000000E112020201100AE
:10043E00000080808090F000001F202020103F20C0
:10044E000000808080800000001F242424241700D8
:10045E00008080E0909020000020203F20200000AF
:10046E000000808080808000006B949494936000E4
:10047E0010F0008080800000203F210000203F20EF
:10048E0000809898000000000020203F20200000EF
:10049E00000000809898000000C08080807F0000DF
:1004AE0010F0000080808000203F240629302000BC
:1004BE00001010F8000000000020203F2020000057
:1004CE008080808080808000203F20003F20003F81
:1004DE008080008080800000203F210000203F208F
:1004EE000000808080800000001F202020201F0040
:1004FE00808000808000000080FF912020110E007F
:10050E000000008080008000000E11202091FF80EE
:10051E00808080008080800020203F21200001000C
:10052E000000808080808000003324242424190061
:10053E00008080E0808000000000001F202010005E
:10054E008080000000808000001F202020103F20AF
:10055E00808080008080800000030C300C0300003F
:10056E008080008080008080010E300C07380601EC
:10057E0000808080008080000020310E2E3120000F
:10058E0080808000008080800081867818060100BF
:10059E0000808080808080000021302C222130005D
:1005AE000000000000FC020200000000013E40407E
:1005BE0000000000FF00000000000000FF0000002F
:1005CE000202FC000000000040403E01000000005E
:1005DE008080808080E0C08001010101010703015D
:1005EE0080C0E0808080808001030701010101014D
:1005FE0000E010080810E000000F102020100F007F
:10060E0000001010F8000000000020203F20200005
:10061E00007008080808F00000302824222130005D
:10062E0000300808088870000018202121221C00C4
:10063E000000804030F8000000060524243F2424EA
:10064E0000F88888880808000019202020110E0064
:10065E0000E0108888900000000F112020201F005D
:10066E0000180808886818000000003E010000000D
:10067E000070880808887000001C222121221C00AE
:10068E0000F008080810E0000001122222110F00ED
:03000B00020DBC27
:010DBC003204
:100D6A0012099C120A35120003120D0C120AC9C28A
:030D7A00A780F659
:100AC900AF16AE15AD14AC131208827C007D64120A
:100AD9000903AA06AB077D027C00E4FFFE120C3174
:100AE900AF16AE15AD14AC131208827C007D6412EA
:100AF90009037E007F0ACFCDCFCECCCE120903AA3F
:100B090006AB077D027C007F027E00120C31AF1616
:100B1900AE15AD14AC131208827C007D0A120903CC
:0F0B2900AA04AB057D027C007F047E00020C3124
:100D5400D296120CF3120CF1C296120CF3C2977FC6
:060D6400017E00020CF705
:100D7D00C296120CF3120CF1D2967F017E00020C7A
:010D8D00F76E
:020B8E008F10C6
:100B9000E4F511F512F511E510C4131313540124F3
:100BA000FF9296E51025E0F510120CF3120CF1C23D
:100BB00097120CF30511E511C3940840DAD296128E
:100BC0000CF3D2973096110512E512D394C840F475
:0F0BD000C297120CF37F0022C297120CF37F0121
:010BDF0022F3
:100D26008F0F120D547F78120B8EE4FF120B8EAFCD
:070D36000F120B8E020D7D70
:100D3D008F0C120D547F78120B8E7F40120B8EAFDD
:070D4D000C120B8E020D7D5C
:100C7F007F20120D267F02120D26E4F508E50824C9
:100C8F00B0FF120D26E4FF120D267F10120D26E481
:100C9F00F509E4FF120D3D0509E509C3948040F203
:090CAF000508E508C3940840D4CF
:010CB8002219
:10099C007FF4120DB57FAE120D26E4FF120D267FEB
:1009AC0010120D267F40120D267F81120D267FFF1F
:1009BC00120D267FA1120D267FC8120D267FA612BE
:1009CC000D267FA8120D267F3F120D267FD3120D08
:1009DC0026E4FF120D267FD5120D267F80120D26E0
:1009EC007FD9120D267FF1120D267FDA120D267F8C
:1009FC0012120D267FDB120D267F40120D267F2052
:100A0C00120D267F02120D267F8D120D267F1412D9
:100A1C000D267FA4120D267FA6120D267FAF120D78
:090A2C00267F64120DB5020C7F57
:100BE0008F0C8D0D8B0E7F20120D26E4FF120D262B
:100BF0007F22120D26E50D25E0FF120D26E50D25BD
:100C0000E004FF120D267F21120D26E50E75F00877
:100C1000A42408850CF0A4FF120D26E50E75F0083B
:100C2000A4FF2408850CF0A4FEEF24072EFF020D7C
:010C3000269D
:100A35007B237A007D017C00E4FFFE120B407B28BE
:100A45007F01120B387B327A007D017C007F027EAC
:100A550000120B407B337A007D017C007F037E0012
:100A6500120B407B207A007D017C007F047E001202
:100A75000B407B2D7A007D017C007F057E00120BEB
:100A8500407B227F06120B387B247A007D017C0097
:100A95007F077E00120B407B197A007D017C007F69
:100AA500087E00120B407B427A007D027C007F06A7
:100AB5007E00120B407B4C7A007D027C007F077E16
:040AC50000020B40E0
:080B38007A007D017C007E00C3
:040B40008A088B098B
:100B4400E4FB120BE0E4F50AF50BE509C4F8540FD5
:100B5400C868FFE508C454F048FE740E2FF582748B
:100B6400003EF583E582250BF582E583350AF5839E
:100B7400E493FF120D3D050BE50B7002050AC394C7
:090B840010E50A6480948040C170
:010B8D002245
:040C31008A088B0999
:100C3500E4FB120BE0E4F50AF50BE509C4F8540FE3
:100C4500C868FFE508C454F048FE74FE2FF58274A9
:100C5500053EF583E582250BF582E583350AF583A7
:100C6500E493FF120D3D050BE50B7002050AC394D5
:090C750010E50A6480948040C17E
:010C7E002253
:070DB500AE071FEE70FA22E9
:060CF100D2977F017E0096
:100CF700E4FDEDC39FE49E500B7C017B02DBFEDC31
:040D0700FA0D80EE73
:010D0B0022C5
:0F0D8E00758901E4F58CF58AD2A9D28CD2AF22F7
:08000300120D8EC290C2B22260
:0C0D9D00D2907F027E00120CF7C2902260
:100CB900AF8CEFFEAD8A7C00E42DFFEC3EFEE4F53F
:100CC9008CF58AAD07AC061208497B9A7A9979D9CD
:100CD900783F12069EE4FBFA79C878421207A78F7B
:070CE900168E158D148C130B
:010CF00022E1
:100D0C00120D9D30B2FDD28C20B2FDC28C120CB9EA
:0A0D1C00E4F58CF58A7F50020DB556
:10069E00EC4D6011E8497017ED33EC3304600DE456
:1006AE00FCFFFEFD22E933E8330470F80208EE1277
:1006BE0008B958046009E4CC248150062850090278
:1006CE0008F82840030208F5C0E0EB4A7044B980F0
:1006DE0006D0E0FB0208E4EF4E701CBD8008EBFF75
:1006EE00EAFEE9FD80EBE98DF0A4FEE5F002078756
:1006FE00E9CDF9EAFEEBFFEF89F0A4FCE5F0CE8937
:10070E00F0A42EFFE435F0CD89F0A42DFEE435F0F3
:10071E008067EF4E7005BD80D780C3EF8BF0A4AC21
:10072E00F0EE8BF0A42CFCE435F0F8EF8AF0A42C5C
:10073E00E5F038FCE433CB8DF0A42CFCE5F03BF86F
:10074E00EE8AF0A42CFCE5F038F8E433CF89F0A45F
:10075E002CFCE5F038CF3400CE89F0A42FFFE5F065
:10076E003EFEE433C98DF0A42EFEE5F039CD8AF0BD
:10077E00A42FFFE5F03EFEE43DFD33D0E0FB500735
:10078E000BBB000F0208F8EC2CFCEF33FFEE33FE30
:06079E00ED33FD0208D05E
:1007A4000208F8EC5D046005E8590470030208EEE1
:1007B4001208B9580460F6EC4860F2EC7004FDFECF
:1007C400FF22C860DB2481C85009C3986002500628
:1007D4000208F59850CAF582E9294B4A7005AB82A4
:1007E4000208E475F0007C1A7880C3EF9BEE9AED62
:1007F40099400DC3EF9BFFEE9AFEED99FDE842F0A0
:10080400DC23ACF0D0E0FFD0E0FED0E0FDAB8220F2
:10081400E7101BEB60BAEC2CFCEF33FFEE33FEED7C
:1008240033FD0208D0E803F830E705C0F075F000A6
:10083400EF2FFFEE33FEED33FD40B830E7C280AA60
:1008440075F020800E75F010800575F0087D007E2F
:10085400007F003392D530D503120939EC334010B0
:10086400EF33FFEE33FEED33FDEC33FCD5F0ED2238
:0E087400E5F0247EA2D513CC92E7CDCEFF2274
:10088200EDD2E7CD33EC3392D524814006E4FFFE6E
:10089200FDFC22FCE4CFCECDCC24E0501174FF80CD
:1008A200EDC3CC13CCCD13CDCE13CECF13CF04706A
:0708B200F030D5DE02093928
:1008B900E9D2E7C933E833F892D5EDD2E7CD33EC85
:0708C90033FC5002B2D522FE
:1008D000EC30E7100FBF000C0EBE00080DBD000489
:1008E0000BEB6014A2D5EB13FCED92E7FD2274FF35
:1008F000FCFDFEFF22E480F8A2D574FF13FC7D808E
:03090000E480EFA1
:03000000020DA945
:0C0DA900787FE4F6D8FD758116020D6A13
:10090300C2D5EC30E709B2D5E4C39DFDE49CFCEE0F
:1009130030E715B2D5E4C39FFFE49EFE120947C337
:10092300E49DFDE49CFC800312094730D507C3E432
:060933009FFFE49EFE227E
:0E093900C3E49FFFE49EFEE49DFDE49CFC22CF
:10094700BC000BBE0029EF8DF084FFADF022E4CC94
:10095700F875F008EF2FFFEE33FEEC33FCEE9DEC5D
:10096700984005FCEE9DFE0FD5F0E9E4CEFD22EDA3
:10097700F8F5F0EE8420D21CFEADF075F008EF2FED
:10098700FFED33FD4007985006D5F0F222C398FDDE
:050997000FD5F0EA227B
:00000001FF
