:1004F9007FBFDFEFF7FBFDFE8040201008040201FB
:10022400010B0320200F000000000000000000006C
:1002340000000000000000000000000000000000BA
:10024400000000000000202030000000000000003A
:10025400000000000000000000000000000000009A
:10026400000000000000000000010C00012F00014C
:080274000D01010E00010A005A
:0B050900D288D2A8D28AD2AAD2AF2298
:1004D900438901758CFC758AFCD2A9D2AFD28C22D2
:1004E900438901758DFC758BFCD2ABD2AFD28E22BC
:03001B00020006DA
:0100060032C7
:03000B000202CA24
:1002CA00C0E0C0F0C083C082C0D075D000C000C0FA
:1002DA0001C002C003C004C005C006C007E50890FB
:1002EA0004F893F580E50990050093FF12047DD088
:1002FA0007D006D005D004D003D002D001D000D058
:0A030A00D0D082D083D0F0D0E032D2
:030003000203E70E
:1003E700C0E0C0D0E50EB40105750DFF8008E50E2D
:1003F700B4FF08750D01750E008018E50DB4FF08F0
:10040700750D00750EFF800BE50DB40106750D0027
:08041700750E01D0D0D0E032D7
:0300130002041FC5
:10041F00C0E0C0D0E50EB40105750D018008E50EF2
:10042F00B4FF08750DFF750E008018E50DB4FF08B9
:10043F00750D00750E01800BE50DB40106750D00ED
:08044F00750EFFD0D0D0E032A1
:1004A3001205091204C61204D91204E91203A1E5C4
:1004B3000A700C12035B1201B1120135120314B25C
:0304C3009780EC33
:10035B007580FFE4FF12047DE4F550E550C3950B67
:10036B005033740F2550F8E6602774302550F8E6AB
:10037B00601F90050093FF12047D740F2550F8E663
:10038B009004F893F5807F057E007D007C001204BD
:05039B0057055080C66B
:0103A000223A
:080457008F548E538D528C511D
:10045F00D3EF9400EE940040147D6E7C00ED1D7080
:0D046F00011CED4C70F7EF1F70E61E80E3DE
:01047C00225D
:1001B100E4FFE50B14FEEFC39E501B74102FF8E60D
:1001C100FE740F2FF8A60674312FF8E6FE74302F57
:1001D100F8A6060F80DC740E250BF8E50D26F674E3
:1001E1002F250BF8E50E26F6740E250BF8E6FFD346
:1001F1009408400476018008EFC394015002760808
:10020100742F250BF8E6FFD394084004760180088B
:10021100EFC39401500276087FF47E017D007C00DB
:030221000204577D
:10047D00C2B6C2B5E4FEEFC4131313540124FF92A8
:10048D00B4EF25E0FFD2B60000C2B60EBE08E7D22B
:05049D00B50000C2B52E
:0104A2002237
:1004C600750F0275300375100375310375110475C8
:0304D600320322CC
:1003A100E4F50C12027D7C007D081200AAED04F533
:1003B1005012027D7C007D081200AAED04FFE4FECC
:1003C100EEC3950B5016740F2EF8E6B5500B743032
:1003D1002EF8E6B50703750C010E80E4E50C70C03C
:0503E1008550088F09A2
:0103E60022F4
:10013500740E250BF8E6FFAD0DED3395E0FCEF2DC4
:10014500FFE43CFE7C00EFB50824ECB50620742FD7
:10015500250BF8E6FFAD0EED3395E0FCEF2DFFE442
:100165003CFE7C00EFB50906ECB506028012740E64
:10017500250BF8E6B5080C742F250BF8E6B5090331
:10018500752F01E52F6024E4F52FC28C050BE508DA
:10019500250DFF740E250BF8A607E509250EFF743E
:0C01A5002F250BF8A6071203A1D28C2214
:10031400E50BD39404403FE4FFE50B24FCFEEFC35C
:100324009E5024740F2FF8E6FE740E250BF8E6B5E4
:10033400061274302FF8E6FE742F250BF8E6B50686
:1003440003750A010F80D2E50AB4010AE4FF12041E
:060354007D7580FFB294EC
:01035A002280
:0300000002001EDD
:0C001E00787FE4F6D8FD7581580200657B
:1000AA00C2D5EC30E709B2D5E4C39DFDE49CFCEE71
:1000BA0030E715B2D5E4C39FFFE49EFE1200E0C309
:1000CA00E49DFDE49CFC80031200E030D507C3E404
:0600DA009FFFE49EFE22E0
:10027D00AC55AD56AE57AF587810EC4D4E4F70048F
:10028D007CA57DA5C3EC13FCED13FDEE13FEEF1362
:10029D00FF5010EC64CCFCED644CFDEE644EFEEFB3
:1002AD0064CEFFD8DF8C558D568E578F58EE547F08
:0D02BD00FE228E558F5674A5F557F5582278
:10002A000204A3E493A3F8E493A34003F68001F245
:10003A0008DFF48029E493A3F85407240CC8C333D7
:10004A00C4540F4420C8834004F456800146F6DFA6
:10005A00E4800B0102040810204080900224E47E10
:10006A00019360BCA3FF543F30E509541FFEE4939B
:10007A00A360010ECF54C025E060A840B8E493A362
:10008A00FAE493A3F8E493A3C8C582C8CAC583CA8D
:10009A00F0A3C8C582C8CAC583CADFE9DEE780BE45
:01027C000081
:1000E000BC000BBE0029EF8DF084FFADF022E4CC04
:1000F000F875F008EF2FFFEE33FEEC33FCEE9DECCD
:10010000984005FCEE9DFE0FD5F0E9E4CEFD22ED12
:10011000F8F5F0EE8420D21CFEADF075F008EF2F5C
:10012000FFED33FD4007985006D5F0F222C398FD4D
:050130000FD5F0EA22EA
:00000001FF
