:070BA500533D25640D0A0019
:03000B00020BAC39
:010BAC003216
:03002300020BAD20
:010BAD003215
:100ABC00120B58120003120B3E7547FF75480B754D
:100ACC0049A585424A85434B7B007A007922120660
:0E0ADC002E7B007A007922120AEAC2A080D88E
:0F0B6F00758901E4F58CF58AD2A9D28CD2AF2218
:08000300120B6FC290C2B22281
:0C0B7E00D2907F027E0012000EC2902276
:100A8500AF8CEFFEAD8A7C00E42DFFEC3EFEE4F575
:100A95008CF58AAD07AC061201D17B9A7A9979D982
:100AA500783F120026E4FBFA79C8784212012F122A
:060AB500020A8E428F438D
:010ABB002218
:100B3E00120B7E30B2FDD28C20B2FDC28C120A8511
:0A0B4E00E4F58CF58A7F50020B9E3F
:080A41008F4A8E498D488C4755
:100A4900E4F54BF54CF582F583F54BF54CE4F5836C
:100A5900F582AF82AE83EE3395E0FDFCAB4AAA493D
:100A6900A948A847D312058B4003A380E5054CE5A7
:0B0A79004C7002054B6464454B70D2CA
:010A8400224F
:100B5800D2AFD2AC75984075CDFF75CCFD75CBFF83
:070B680075CAFD75C83422B7
:100AEA008B448A458946AB44AA45A946120525FF87
:100AFA006010120B9674012546F546E43545F54516
:0D0B0A0080E47F647E007D007C00020A41D3
:080B96008F993099FDC29922EC
:070B9E00AE071FEE70FA2202
:10000E00E4FDEDC39FE49E500B7C017B02DBFEDC26
:04001E00FA0D80EE69
:0100220022BB
:10002600EC4D6011E8497017ED33EC3304600DE4D4
:10003600FCFFFEFD22E933E8330470F80202761273
:10004600024158046009E4CC248150062850090274
:10005600028028400302027DC0E0EB4A7044B9806A
:1000660006D0E0FB02026CEF4E701CBD8008EBFF71
:10007600EAFEE9FD80EBE98DF0A4FEE5F002010F52
:10008600E9CDF9EAFEEBFFEF89F0A4FCE5F0CE89B5
:10009600F0A42EFFE435F0CD89F0A42DFEE435F072
:1000A6008067EF4E7005BD80D780C3EF8BF0A4ACA0
:1000B600F0EE8BF0A42CFCE435F0F8EF8AF0A42CDB
:1000C600E5F038FCE433CB8DF0A42CFCE5F03BF8EE
:1000D600EE8AF0A42CFCE5F038F8E433CF89F0A4DE
:1000E6002CFCE5F038CF3400CE89F0A42FFFE5F0E4
:1000F6003EFEE433C98DF0A42EFEE5F039CD8AF03C
:10010600A42FFFE5F03EFEE43DFD33D0E0FB5007B3
:100116000BBB000F020280EC2CFCEF33FFEE33FE2C
:06012600ED33FD0202585A
:10012C00020280EC5D046005E8590470030202765B
:10013C00120241580460F6EC4860F2EC7004FDFECB
:10014C00FF22C860DB2481C85009C39860025006A6
:10015C0002027D9850CAF582E9294B4A7005AB82A0
:10016C0002026C75F0007C1A7880C3EF9BEE9AED5E
:10017C0099400DC3EF9BFFEE9AFEED99FDE842F01E
:10018C00DC23ACF0D0E0FFD0E0FED0E0FDAB822071
:10019C00E7101BEB60BAEC2CFCEF33FFEE33FEEDFB
:1001AC0033FD020258E803F830E705C0F075F000A3
:1001BC00EF2FFFEE33FEED33FD40B830E7C280AADF
:1001CC0075F020800E75F010800575F0087D007EAE
:1001DC00007F003392D530D50312057DEC334010EF
:1001EC00EF33FFEE33FEED33FDEC33FCD5F0ED22B7
:0E01FC00E5F0247EA2D513CC92E7CDCEFF22F3
:10020A00EDD2E7CD33EC3392D524814006E4FFFEEC
:10021A00FDFC22FCE4CFCECDCC24E0501174FF804B
:10022A00EDC3CC13CCCD13CDCE13CECF13CF0470E8
:07023A00F030D5DE02057D66
:1005D200E55B2447F8E6055B22784430070278475A
:1005E200E475F00112059C0205252000EB7F2ED256
:1005F200008018EF540F2490D43440D4FF30040B01
:10060200EF24BFB41A0050032461FFE55C600215B9
:100612005C055FE55F7002055E30070D7844E475A6
:10062200F00112059CEF02056B020B177403D2074F
:100632008003E4C207F55B8B448A458946E4F55C96
:10064200F55EF55FE55C60077F2012060D80F575AB
:100652005DFFC201C200C202C203C205C206C208D5
:100662001205DBFF700D3007057F0012061EAF5F1B
:10067200AE5E22B4255FC2D5C2041205DBFF24D0D0
:10068200B40A00501A75F00A785C30D50508B6FF36
:100692000106C6A426F620D5047002D20380D9240E
:1006A200CFB41A00EF5004C2E5D20402090BD20102
:1006B20080C6D20080C0D20280BCD2D580BAD20518
:1006C20080B47F2012060D2002077401B55C004041
:1006D200F11205D2FF12060D020646D208D206809A
:1006E200951205D2FB1205D2FA1205D2F94A4B70C5
:1006F2000679027A0A7BFF20022EE55C602A7E00E0
:100702008E8275830012053E60060EEE655D70F006
:10071200C2D5EBC0E0EAC0E0E9C0E0EE12096BD05E
:10072200E0F9D0E0FAD0E0FB120525FF60AAEBC0A9
:10073200E0EAC0E0E9C0E012060DD0E02401F9D001
:10074200E03400FAD0E0FBE55D0460DCD55DD980E1
:1007520087D20280A212094E60F7E55D7001041291
:10076200028BA95D600DE55D600914F55D1209F566
:10077200EF60F3EA30E702F404C3995077EAF42514
:100782005D0430E701E404F55D800D12094E60C19D
:10079200EA055D255D12028BEA785AF630E701E43C
:1007A200255D04D55D042005011412096BE4C0E047
:1007B2001209F5785AE6601320E70714F61205F5D8
:1007C200802204F6D0E014C0E07F001205F5E55D5A
:1007D20060071205EC155D800B3005031205ECD0A5
:1007E200E0020646D0E00480C512094E60A0E55D35
:1007F2000412028B785AEAF6E55D200502600104D4
:05080200240412096B43
:1008070074FF04C0E01209F51205F5E55D20050245
:1008170060031205ECD0E0B55DE87F451205FF786F
:100827005AE67F2B30E7047F2DF404C0E012060D53
:10083700D0E075F00A84C0F01205F6D0E01205F694
:10084700020646791080027908C206C2088008D2DB
:10085700D5790A8004790AC2D5E55D047002F55D91
:10086700E4FAFDFEFF1205D2FC7B082001131205F6
:10087700D2FD7B1030000A1205D2FE1205D2FF7B93
:1008870020EC3382D592D55013C3E43000069FFF86
:10089700E49EFEE42001039DFDE49CFCE4CBF8C24A
:1008A70001EC700CCFCECDCCE824F8F870F38017AC
:1008B700C3EF33FFEE33FEED33FDEC33FCEB33FBDD
:1008C700994002FB0FD8E9EB300105F8D0E0C448A6
:1008D700B201C0E00AEC4D4E4F78207B0070C2EAAF
:1008E700B55D0040BCC0E012096DD0F0D0E020013A
:1008F70004C4C0E0C4B201C0F01205F6D0F0D5F0D0
:10090700EB0206461205AC06E353084A5806B44CF8
:1009170006B042084E4F08564408564906C94308D0
:100927005C55078D4607EB450757470A225006B81F
:100937002D06BC2E06DF2B06C02306DD200A0B2A58
:10094700067848000006D7E55DB4FF03755D06121B
:1009570005D2FC1205D2FD1205D2FE1205D2FF7890
:10096700530202BA790AA2D5200314300509B91037
:10097700020404B9080104A2D5200602500104208C
:1009870002689202B55C005034C0E07F2030031942
:100997007F30A20272067205500F1209C4C202C24A
:1009A70006C205C2087F30800F300503E9C0E01298
:1009B700060D300503D0E0F9D0E0B55CCC30051763
:1009C7007F30B9100C12060D7F583004077F7880EE
:1009D70003B9080312060D3002057F2D02060D7FAD
:1009E700202008F87F2B2006F322920280CF7F0079
:1009F700B4070050052453F8E6FF22286E756C6C87
:100A07002900D2011205D23001F8C201785C30D535
:100A17000108F60206782D504349581205D22403DF
:100A2700B405004001E4900A1D931205FE743A12C2
:0A0A370005FED203755C0402084AB4
:10024100E9D2E7C933E833F892D5EDD2E7CD33EC03
:0702510033FC5002B2D5227C
:10025800EC30E7100FBF000C0EBE00080DBD000407
:100268000BEB6014A2D5EB13FCED92E7FD2274FFB3
:10027800FCFDFEFF22E480F8A2D574FF13FC7D800C
:03028800E480EF20
:10028B00F920E72824F950037907E4F42402FB183A
:10029B00DBFDE624FB5014E9600DE4F618E604F6EA
:0F02AB00B40A08E4F6D9F57401F60A22C2D52286
:1002BA00ED33EC3392D5FA602AB4FF33EDC2E77B13
:1002CA00FF60067A0279DFE4227A0279E820D5040F
:1002DA007A0279E3224E614E002B494E46002D499F
:1002EA004E4600E47A08F608DAFC7B00740722E836
:1002FA00C0E0ECC0E0EDC0E0EEC0E0EFC0E0EA75BF
:10030A00F010A4CAABF075F04DA42BFBE435F0FC59
:10031A00EA2410FAEB34C5FBEC34D9FCEDC2E7FF52
:10032A0075F056A4F42411C5F0F434C58FF0A42A4C
:10033A00E5F03BE43CF620E7141204E5D0E0FFD0F8
:10034A00E0FED0E0FDD0E0FC12012F8014F404128C
:10035A0004E5D0E0FFD0E0FED0E0FDD0E0FC1200E2
:10036A0026D0E0F8E6FAEDD2E7CD33EC332482FB6F
:10037A00E4C3CF33CFCE33CECD33CD33DBF37B07DC
:10038A0075F00A846004F6081B0AE5F0F6088FF097
:10039A00740AA4FFACF08EF0740AA42CFEACF050E0
:1003AA00010C8DF0740AA42CFDE435F0F608DBDEAE
:0303BA00740722A3
:1003BD00020276E86480F8E933E83360110460F0F6
:1003CD00ED33EC337009E8FCE9FDEAFEEBFF2204A6
:1003DD0060DED3EB9FEA9EE99DE8C2E78CF0C2F7A1
:1003ED0095F0400CE8CCF8E9CDF9EACEFAEBCFFB6D
:1003FD0012024185D0F05804700320D5B3E8047083
:10040D00075002B2D502028092D5EC0460F7E4CC1D
:10041D00C0E0C398F8603B94186008400DD0E0FB35
:10042D00020258E4FBFAC9FC8028E830E406E4C96E
:10043D00FBE4CAFCE830E305E4C9CACBFCE8540789
:10044D006010F8C3E913F9EA13FAEB13FBEC13FC94
:10045D00D8F130F52FC3E49CFCEF9BFFEE9AFEED37
:10046D0099FDD0E0FBEF4E4D4C701222DB030202E2
:10047D007DEC2CFCEF33FFEE33FEED33FDED30E77D
:10048D00EB020258EF2BFFEE3AFEED39FDD0E0FB0B
:10049D0050130BBB0003020280ED13FDEE13FEEFB4
:0804AD0013FFEC13FC020258DE
:1004B5003F8000004120000042C80000447A00004F
:1004C500461C400047C35000497424004B189680D1
:1004D5004CBEBC205A0E1BCA6753C21C749DC5AEC8
:1004E500FB60065407601C2323120513EB54386088
:1004F500091204FF12050E120026ECF8EDF9EEFACA
:10050500EFCB22EB12050E80F1543803241C900426
:10051500B5FE93FC0EEE93FD0EEE930ECE93FF22E9
:03000000020B8A66
:0C0B8A00787FE4F6D8FD75815F020ABC9C
:10052500BB010689828A83E0225002E722BBFE02D4
:09053500E32289828A83E4932207
:10053E00BB010CE58229F582E5833AF583E0225072
:10054E0006E92582F8E622BBFE06E92582F8E222BC
:0D055E00E58229F582E5833AF583E49322D6
:10056B00BB010689828A83F0225002F722BBFE016F
:02057B00F32269
:0E057D00C3E49FFFE49EFEE49DFDE49CFC228F
:10058B00EB9FF5F0EA9E42F0E99D42F0E89C45F0C6
:01059B00223D
:10059C00FAE6FB0808E6F925F0F618E6CA3AF62260
:1005AC00D083D082F8E4937012740193700DA3A3DE
:1005BC0093F8740193F5828883E4737402936860F2
:0605CC00EFA3A3A380DFF2
:100B1700EFB40A07740D120B22740A309811A899C2
:100B2700B8130CC2983098FDA899C298B811F6303E
:070B370099FDC299F5992216
:00000001FF
