:10000E00000000F8000000000000003300000000B7
:10001E0000100C02100C0200000000000000000096
:10002E000040C07840C0780000043F04043F040044
:10003E0000708888FC08300000182020FF211E0068
:10004E00F008F0806018000000310C031E211E0025
:10005E0000F00888700000001E21232C19272110A3
:10006E0000120E0000000000000000000000000062
:10007E00000000E0180402000000000718204000F5
:10008E0000020418E00000000040201807000000E5
:10009E00404080F0804040000202010F0102020049
:1000AE0000000000E0000000000101010F0101014D
:1000BE000000000000000000009070000000000032
:1000CE0000808080808080800000000000000000A2
:1000DE0000000000000000000030300000000000B2
:1000EE0000000000C0380400006018070000000087
:1000FE0000E010080810E000000F102020100F0084
:10010E0000001010F8000000000020203F2020000A
:10011E00007008080808F000003028242221300062
:10012E0000300808088870000018202121221C00C9
:10013E000000804030F8000000060524243F2424EF
:10014E0000F88888880808000019202020110E0069
:10015E0000E0108888900000000F112020201F0062
:10016E0000180808886818000000003E0100000012
:10017E000070880808887000001C222121221C00B3
:10018E0000F008080810E0000001122222110F00F2
:10019E0000000000000000000000363600000000E5
:1001AE00000000000000000000005B3B00000000AB
:1001BE0000008040201008000001020408102000FA
:1001CE000040404040404000000202020202020095
:1001DE0000081020408000000020100804020100DA
:1001EE0000704808088870000000003037000000DA
:1001FE00C030C828E810E000071827282F2817005D
:10020E000000C038E0000000203C23020227382006
:10021E0008F8888888700000203F202020110E00EA
:10022E00C0300808080838000718202020100800E1
:10023E0008F808080810E000203F202020100F00CA
:10024E0008F88888E8081000203F20202320180096
:10025E0008F88888E8081000203F200003000000FE
:10026E00C03008080838000007182020221E02009F
:10027E0008F808000008F808203F210101213F205E
:10028E00000808F8080800000020203F2020000089
:10029E0000000808F8080800C08080807F00000079
:1002AE0008F888C028180800203F200126382000B2
:1002BE0008F8080000000000203F20202020300019
:1002CE0008F8F800F8F80800203F013E013F200032
:1002DE0008F830C00008F808203F200007183F003B
:1002EE00E01008080810E0000F10202020100F006A
:1002FE0008F808080808F000203F2101010100005D
:10030E00E01008080810E0000F10282830504F00A9
:10031E0008F8888888887000203F2000030C302061
:10032E0000708808080838000038202121221C009F
:10033E00180808F8080818000000203F20000000E8
:10034E0008F808000008F808001F202020201F00D1
:10035E000878880000C83808000007380E01000031
:10036E0008F800F800F8080000033E013E03000004
:10037E00081868808068180820302C03032C302061
:10038E000838C800C83808000000203F20000000D0
:10039E0010080808C8380800203826212020180028
:1003AE00000000FE020202000000007F40404000FC
:1003BE0000000004081020C0000000000202027FAE
:1003CE0000020202FE000000004040407F000000DC
:1003DE000000040202040000000000000000000003
:1003EE0000000000000000008080808080808080FF
:1003FE0000020204000000000000000000000000E7
:10040E00000080808000000000192424123F20008C
:10041E0010F0008080000000003F112020110E001F
:10042E000000008080800000000E112020201100AE
:10043E00000080808090F000001F202020103F20C0
:10044E000000808080800000001F242424241700D8
:10045E00008080E0909020000020203F20200000AF
:10046E000000808080808000006B949494936000E4
:10047E0010F0008080800000203F210000203F20EF
:10048E0000809898000000000020203F20200000EF
:10049E00000000809898000000C08080807F0000DF
:1004AE0010F0000080808000203F240629302000BC
:1004BE00001010F8000000000020203F2020000057
:1004CE008080808080808000203F20003F20003F81
:1004DE008080008080800000203F210000203F208F
:1004EE000000808080800000001F202020201F0040
:1004FE00808000808000000080FF912020110E007F
:10050E000000008080008000000E11202091FF80EE
:10051E00808080008080800020203F21200001000C
:10052E000000808080808000003324242424190061
:10053E00008080E0808000000000001F202010005E
:10054E008080000000808000001F202020103F20AF
:10055E00808080008080800000030C300C0300003F
:10056E008080008080008080010E300C07380601EC
:10057E0000808080008080000020310E2E3120000F
:10058E0080808000008080800081867818060100BF
:10059E0000808080808080000021302C222130005D
:1005AE000000000000FC020200000000013E40407E
:1005BE0000000000FF00000000000000FF0000002F
:1005CE000202FC000000000040403E01000000005E
:1005DE008080808080E0C08001010101010703015D
:1005EE0080C0E0808080808001030701010101014D
:1005FE0000E010080810E000000F102020100F007F
:10060E0000001010F8000000000020203F20200005
:10061E00007008080808F00000302824222130005D
:10062E0000300808088870000018202121221C00C4
:10063E000000804030F8000000060524243F2424EA
:10064E0000F88888880808000019202020110E0064
:10065E0000E0108888900000000F112020201F005D
:10066E0000180808886818000000003E010000000D
:10067E000070880808887000001C222121221C00AE
:10068E0000F008080810E0000001122222110F00ED
:0A109300021A00000414000000001F
:10102B00121056120C85120BB7120FA91209CA1205
:06103B000AD5C2A780F3F4
:10105600758901758CFC758A18D2A9D28CD2AF22FB
:03000B00020F3BA6
:100F3B00C0E0C0D0758CFC758A18051BE51B7002D0
:100F4B00051AE51BB4E824E51AB4031FE5172401C1
:100F5B00F517E43516F516E43515F515E43514F5E6
:100F6B0014B2A3751A00751B0080D7D0D0D0E03215
:0510850012108AD29157
:08108A007F017E02DEFEDFFAA9
:01109200223B
:07000300AE071FEE70FA22A8
:0F107600D290121085C29012108AC29102108A75
:0A109E00C290121085D29002108A51
:070EF300AC071210767F78B6
:020EFA00AD0742
:100EFC00E4FBFAEDC4131313540124FF9290ED2577
:100F0C00E0FD121085C29112108A0BBB08E5D2903D
:100F1C0012108AD29130900F0AEAD394C840F6C2CC
:0E0F2C009112108A7F0022C29112108A7F015A
:010F3A002294
:05104100121046E4FF5F
:10104600120EF3E4FF120EFAAF04120EFA02109E0D
:10106600120EF37F40120EFAAF04120EFA02109E11
:100F7B007F201210467F02121046E4F9E924B0FFDD
:100F8B001210417F10121046E4F508E4FF121066B0
:0D0F9B000508E508C3948040F209B908DF9D
:010FA8002226
:100C85007FF41200037FAE1210417F101210467FD1
:100C9500401210467F811210467FFF1210467FA139
:100CA5001210467FC81210467FA61210467FA81262
:100CB50010467F3F1210467FD31210417FD5121088
:100CC500467F801210467FD91210467FF1121046DA
:100CD5007FDA1210467F121210467FDB1210467F14
:100CE500401210467F201210467F021210467F8D5B
:100CF5001210467F141210467FA41210467FA612CA
:0F0D050010467FAF1210467F64120003020F7B6F
:100EA9008F128D13A9037F201210417F2212104641
:100EB900E51325E0FF121046E51325E004FF1210A3
:100EC900467F21121046E975F008A424088512F01E
:100ED900A4FF121046E975F008A4FF24088512F052
:0A0EE900A4FEEF24072EFF021046BE
:0A0DF9007F087A007D027C007E0076
:040E03008A0E8B0FB9
:100E0700E4FB120EA9E4F510F511E50FC4F8540F31
:100E1700C868FFE50EC454F048FE740E2FF58274BF
:100E2700003EF583E5822511F582E5833510F583CC
:100E3700E493FF1210660511E51170020510C394C3
:090E470010E5106480948040C1A4
:010E5000227F
:0A0E5100AA04AB057D017C007E00C1
:040E5B008A0E8B0F61
:100E5F00E4FB120EA9E4F510F511E50FC4F8540FD9
:100E6F00C868FFE50EC454F048FE74FE2FF5827477
:100E7F00053EF583E5822511F582E5833510F5836F
:100E8F00E493FF1210660511E51170020510C3946B
:090E9F0010E5106480948040C14C
:010EA8002227
:100BB7007B227A00E4FDFCFFFE120E037B2F7A00F6
:100BC700E4FDFC7F02FE120E037B347A00E4FDFC99
:100BD7007F04FE120E037B197A00E4FDFC7F06FEFC
:100BE700120E037B337A007D017C00E4FFFE120EB8
:100BF700037B287A007D017C007F017E00120E03B3
:100C07007B2C7A007D017C007F027E00120E037B25
:100C1700247A007D017C007F037E00120E037B197E
:100C27007A007D017C007F047E00120E037B327AFE
:100C3700007D027C00E4FFFE120E037B337F01126E
:100C47000DFB7B207A007D027C007F027E00120E66
:100C5700037B337A007D027C007F037E00120E0344
:100C67007B247A007D027C007F047E00120E037BCA
:0E0C7700197A007D027C007F057E00020E03CC
:1009CA00E47B107A0EF9F8AF17AE16AD15AC141217
:1009DA0008D58E088F09E47B107A0EF9F8AF17AEA6
:1009EA0016AD15AC141208D5AC00AD01AE02AF03BA
:1009FA00E47B3CFAF9F81208D58E0A8F0BE47B3CAB
:100A0A00FAF9F8AF17AE16AD15AC141208D5AE0246
:100A1A00AF038E0C8F0DAE08AF097C007D0A120859
:100A2A0063AA06AB077D017C007F067E00120E5B7F
:100A3A00AE08AF097C007D0A1208637F07120E51C7
:100A4A007B477A007D017C007F087E00120E03AE90
:100A5A000AAF0B7C007D0A120863AA06AB077D0168
:100A6A007C007F097E00120E5BAE0AAF0B7C007D14
:100A7A000A1208637F0A120E517B4C7A007D017CB0
:100A8A00007F0B7E00120E03AE0CAF0D7C007D0AB8
:100A9A00120863AA06AB077D017C007F0C7E001258
:100AAA000E5BAE0CAF0D7C007D0A120863AA04AB84
:100ABA00057D017C007F0D7E00120E5B7B527A0061
:0B0ACA007D017C007F0E7E00020E0309
:100FA900120DA0E51875F00A84FB7A00E4FDFC7FB8
:100FB90007FE120E5BE51875F00A84E5F0FB7A006E
:090FC900E4FDFC7F09FE020E5B51
:10101100D2B67F08120003C2B67F50120003D2B6C7
:0A1021007F051200037F1402000394
:100FD200E4FC7D08D2B67F01120003C2B6ECC31353
:100FE200FCD2B630B6034304807F04120003DDE472
:020FF200AF044A
:010FF40022DA
:020FF500AD0746
:100FF7007B08C2B6ED1392B67F05120003D2B6ED99
:0A100700C313FDDBED7F04020003BC
:100DA0001210117FCC120FF57F44120FF57F7D12C8
:100DB00000031210117FCC120FF57FBE120FF51237
:100DC0000FD2AB07120FD28F19E42BF519E4B4F848
:100DD00013E519F404F519FCE41207AEE4FBFAF983
:100DE00078BE800CAC19E41207AEE4FBFAF9783E49
:080DF00012069E1207E28F18A3
:010DF80022D8
:100AD500E518D3943C504E7B4D7A007D027C007F17
:100AE500067E00120E037B4E7A007D027C007F0796
:100AF5007E00120E037B51120DF97B4C7A007D02AC
:100B05007C007F097E00120E037B407A007D027C0B
:100B1500007F0A7E00120E037B4B7A007D027C006B
:100B25007F0B020BB17B4E7A007D027C007F067E37
:100B350000120E037B557A007D027C007F077E0044
:100B4500120E037B44120DF97B517A007D027C0065
:100B55007F097E00120E037B477A007D027C007FB1
:100B65000A7E00120E037B447A007D027C007F0B17
:100B75007E00120E037B407A007D027C007F0C7E96
:100B850000120E037B537A007D027C007F0D7E00F0
:100B9500120E037B447A007D027C007F0E7E0012DC
:100BA5000E037B437A007D027C007F0F7E00120ED0
:020BB500032219
:10069E00EC4D6011E8497017ED33EC3304600DE456
:1006AE00FCFFFEFD22E933E8330470F802084E1217
:1006BE00081958046009E4CC248150062850090218
:1006CE000858284003020855C0E0EB4A7044B98030
:1006DE0006D0E0FB020844EF4E701CBD8008EBFF15
:1006EE00EAFEE9FD80EBE98DF0A4FEE5F002078756
:1006FE00E9CDF9EAFEEBFFEF89F0A4FCE5F0CE8937
:10070E00F0A42EFFE435F0CD89F0A42DFEE435F0F3
:10071E008067EF4E7005BD80D780C3EF8BF0A4AC21
:10072E00F0EE8BF0A42CFCE435F0F8EF8AF0A42C5C
:10073E00E5F038FCE433CB8DF0A42CFCE5F03BF86F
:10074E00EE8AF0A42CFCE5F038F8E433CF89F0A45F
:10075E002CFCE5F038CF3400CE89F0A42FFFE5F065
:10076E003EFEE433C98DF0A42EFEE5F039CD8AF0BD
:10077E00A42FFFE5F03EFEE43DFD33D0E0FB500735
:10078E000BBB000F020858EC2CFCEF33FFEE33FED0
:06079E00ED33FD020830FE
:1007A40075F020800E75F010800575F0087D007ED0
:1007B400007F003392D530D503120967EC33401023
:1007C400EF33FFEE33FEED33FDEC33FCD5F0ED22D9
:0E07D400E5F0247EA2D513CC92E7CDCEFF2215
:1007E200EDD2E7CD33EC3392D524814006E4FFFE0F
:1007F200FDFC22FCE4CFCECDCC24E0501174FF806E
:10080200EDC3CC13CCCD13CDCE13CECF13CF04700A
:07081200F030D5DE0209679A
:10081900E9D2E7C933E833F892D5EDD2E7CD33EC25
:0708290033FC5002B2D5229E
:10083000EC30E7100FBF000C0EBE00080DBD000429
:100840000BEB6014A2D5EB13FCED92E7FD2274FFD5
:10085000FCFDFEFF22E480F8A2D574FF13FC7D802E
:03086000E480EF42
:03000000020D14DA
:0C0D1400787FE4F6D8FD75811B020D5BB2
:10086300C2D5EC30E709B2D5E4C39DFDE49CFCEEB0
:1008730030E715B2D5E4C39FFFE49EFE120975C3AA
:10088300E49DFDE49CFC800312097530D507C3E4A5
:060893009FFFE49EFE221F
:1008990075F008758200EF2FFFEE33FECD33CDCC16
:1008A90033CCC58233C5829BED9AEC99E582984099
:1008B9000CF582EE9BFEED9AFDEC99FC0FD5F0D676
:1008C900E4CEFBE4CDFAE4CCF9A88222B800C1B9A0
:1008D9000059BA002DEC8BF084CFCECDFCE5F0CBDE
:1008E900F97818EF2FFFEE33FEED33FDEC33FCEB17
:1008F90033FB10D703994004EB99FB0FD8E5E4F9D2
:10090900FA227818EF2FFFEE33FEED33FDEC33FCBE
:10091900C933C910D7059BE99A4007EC9BFCE99AB2
:10092900F90FD8E0E4C9FAE4CCFB2275F010EF2FF7
:10093900FFEE33FEED33FDCC33CCC833C810D707F7
:100949009BEC9AE899400AED9BFDEC9AFCE899F832
:0E0959000FD5F0DAE4CDFBE4CCFAE4C8F922C5
:0E096700C3E49FFFE49EFEE49DFDE49CFC22A1
:100D200002102BE493A3F8E493A34003F68001F2AE
:100D300008DFF48029E493A3F85407240CC8C333D4
:100D4000C4540F4420C8834004F456800146F6DFA3
:100D5000E4800B0102040810204080901093E47E90
:100D6000019360BCA3FF543F30E509541FFEE49398
:100D7000A360010ECF54C025E060A840B8E493A35F
:100D8000FAE493A3F8E493A3C8C582C8CAC583CA8A
:100D9000F0A3C8C582C8CAC583CADFE9DEE780BE42
:01109D000052
:10097500BC000BBE0029EF8DF084FFADF022E4CC66
:10098500F875F008EF2FFFEE33FEEC33FCEE9DEC2F
:10099500984005FCEE9DFE0FD5F0E9E4CEFD22ED75
:1009A500F8F5F0EE8420D21CFEADF075F008EF2FBF
:1009B500FFED33FD4007985006D5F0F222C398FDB0
:0509C5000FD5F0EA224D
:00000001FF
