:0E01D7007375636365737366756C6C792100D4
:1001B4001201897BFF7A0179D7E4FD7F0312005590
:0201C40080F1C8
:10017300D2A112012A120128C2A112012AC2A07F10
:06018300017E0002012EC6
:1001C600C2A112012A120128D2A17F017E000201DA
:0101D6002EFA
:020003008F1359
:10000500E4F514F515F514E513C41313135401247D
:10001500FF92A1E51325E0F51312012A120128C26A
:10002500A012012A0514E514C3940840DAD2A112DE
:10003500012AD2A030A1110515E515D394C840F4C5
:0F004500C2A012012A7F0022C2A012012A7F014D
:010054002289
:1000EC00E4FDFCC3ED9FEC9E5015E4FBFA0BBB004A
:0F00FC00010ABA03F8BBE8F50DBD00010C80E462
:01010B0022D1
:06012800D2A07F017E0061
:10012E00E4FDEDC39FE49E500B7C017B02DBFEDC05
:04013E00FA0D80EE48
:01014200229A
:10015C008F121201737F7C1200037F80120003AF99
:07016C00121200030201C69C
:100189007F3812015C7F0C12015C7F0112015C7FD8
:06019900027E000200ECF2
:100143008B1153050153070FED600343074043072A
:090153008012015CAF1102010CE5
:10010C008F121201737F7C120003AF121200037F57
:0C011C0040120003AF121200030201C6E3
:0A0055008F088D098B0A8A0B890CB5
:10005F0012019F8E0F8F10E4F50DF50EC3E50E956F
:10006F0010E50D950F502FAB0AAA0BA90C850E8228
:10007F00850D831200A6FBAD09AF081201430508D9
:10008F00E508D3941040050509E4F508050EE50EC3
:06009F0070CA050D80C6C9
:0100A5002238
:030000000201E515
:0C01E500787FE4F6D8FD7581150201B4A6
:1000A600BB010CE58229F582E5833AF583E022500F
:1000B60006E92582F8E622BBFE06E92582F8E22259
:0D00C600E58229F582E5833AF583E4932273
:10019F00E4FFFE1200D3600C0FEF70010E09E9703F
:0501AF00F20A80EF22BE
:1000D300BB010689828A83E0225002E722BBFE022B
:0900E300E32289828A83E493225E
:00000001FF
